:020000040800F2
:1000000000500020FD7300081D64000829640008EA
:1000100031640008396400084164000800000000F1
:10002000000000000000000000000000496400081B
:100030005564000800000000616400086D64000859
:100040004D7400084D7400084D7400084D7400088C
:100050004D7400084D7400084D7400084D7400087C
:100060004D7400084D7400084D7400084D7400086C
:100070004D7400084D7400084D7400084D7400085C
:100080004D7400084D7400084D7400084D7400084C
:100090007D6400084D7400084D7400084D7400081C
:1000A0004D7400084D7400084D7400084D7400082C
:1000B0004D7400084D740008000000004D740008E5
:1000C0004D74000800000000000000004D7400089E
:1000D000000000004D7400084D740008000000008E
:1000E0004D7400084D7400084D74000800000000B5
:1000F0000000000000000000000000000000000000
:0C01000000000000000000005FF808F1A3
:10010C0010B5054C237833B9044B13B10448AFF345
:10011C0000800123237010BD0005002000000000AA
:10012C005074000808B5064B1BB106480649AFF3DE
:10013C0000800648036813B1054B03B1984708BD0E
:10014C000000000050740008040500200005002089
:10015C000000000080B500AF4FF40053C4F202035E
:10016C004FF40052C4F20202126842F010021A60FC
:10017C004FF0030000F078FB4FF0000000F036F871
:10018C0006F0D6F84FF00003184680BD80B500AFDE
:10019C004FF48053C4F202034FF0FF32DA604FF495
:1001AC008053C4F202034FF000021A614FF48053E3
:1001BC00C4F202034FF0FF32DA604FF48053C4F202
:1001CC0002034FF00002DA6000F00AF84FF000036F
:1001DC00184680BD80B400AFBD4680BC704700BFE0
:1001EC0080B400AFBD4680BC704700BF80B582B004
:1001FC0000AF786040F28803C2F200031A6844F63C
:10020C00D353C1F26203A3FB02134FEA93131846B4
:10021C0000F076FB4FF0FF3079684FF0000200F0F1
:10022C002FFB4FF00003184607F10807BD4680BDB1
:10023C0080B400AF40F25853C2F200031B6803F1C4
:10024C00010240F25853C2F200031A60BD4680BC52
:10025C00704700BF80B400AF40F25853C2F20003A5
:10026C001B681846BD4680BC704700BF80B584B083
:10027C0000AF7860FFF7EEFFB8607B68FB60FB684F
:10028C00B3F1FF3F03D0FB6803F10103FB6000BF38
:10029C00FFF7E0FF0246BB68D21AFB689A42F7D31D
:1002AC0007F11007BD4680BD80B400AF4EF21003BD
:1002BC00CEF200034EF21002CEF20002126822F0CF
:1002CC0002021A60BD4680BC704700BF80B400AF0C
:1002DC004EF21003CEF200034EF21002CEF20002E8
:1002EC00126842F002021A60BD4680BC704700BF23
:1002FC0080B400AF4FF48073C0F201131846BD46B2
:10030C0080BC704780B400AF4FF40053CEF20403AE
:10031C001B684FEA13431846BD4680BC704700BFAC
:10032C0080B400AF4FF40053CEF204031B684FEAC5
:10033C0003534FEA13531846BD4680BC704700BFA9
:10034C0080B400AF4FF40053CEF204034FF40052CC
:10035C00CEF20402526842F001025A60BD4680BCE3
:10036C00704700BF80B400AF4FF40053CEF20403CB
:10037C004FF40052CEF20402526822F001025A608D
:10038C00BD4680BC704700BF80B400AF4FF4005333
:10039C00CEF204034FF40052CEF20402526842F043
:1003AC0002025A60BD4680BC704700BF80B400AFEB
:1003BC004FF40053CEF204034FF40052CEF2040279
:1003CC00526822F002025A60BD4680BC704700BFE2
:1003DC0080B400AF4FF40053CEF204034FF400523C
:1003EC00CEF20402526842F004025A60BD4680BC50
:1003FC00704700BF80B400AF4FF40053CEF204033B
:10040C004FF40052CEF20402526822F004025A60F9
:10041C00BD4680BC704700BF80B483B000AF78602D
:10042C004FF2E873C1F6FF731A687B681A607B6839
:10043C0003F104024FF2EC73C1F6FF731B681360F7
:10044C007B6803F108024FF2F073C1F6FF731B686F
:10045C00136007F10C07BD4680BC704780B485B0B3
:10046C0000AF78607B6803F00703FB604FF46D43CB
:10047C00CEF20003DB68BB60BA684FF6FF03134093
:10048C00BB60FB684FEA0322BB68134343F0BF63B6
:10049C0043F40033BB604FF46D43CEF20003BA68F3
:1004AC00DA6007F11407BD4680BC704780B400AF1A
:1004BC004FF46D43CEF20003DB6803F4E0634FEAC4
:1004CC0013231846BD4680BC704700BF80B483B070
:1004DC0000AF0346FB714FF46143CEF2000397F972
:1004EC0007204FEA5212F97901F01F014FF0010079
:1004FC0000FA01F143F8221007F10C07BD4680BC4D
:10050C00704700BF80B483B000AF0346FB714FF45B
:10051C006143CEF2000397F907204FEA5212F979A2
:10052C0001F01F014FF0010000FA01F102F120026D
:10053C0043F8221007F10C07BD4680BC704700BF82
:10054C0080B483B000AF0346FB714FF46143CEF22D
:10055C00000397F907204FEA521202F1400253F8B8
:10056C002220FB7903F01F0322FA03F303F00103AB
:10057C00184607F10C07BD4680BC704780B483B0A9
:10058C0000AF0346FB714FF46143CEF2000397F9C1
:10059C0007204FEA5212F97901F01F014FF00100C8
:1005AC0000FA01F102F1400243F8221007F10C07A6
:1005BC00BD4680BC704700BF80B483B000AF03461B
:1005CC00FB714FF46143CEF2000397F907204FEA19
:1005DC005212F97901F01F014FF0010000FA01F1FC
:1005EC0002F1600243F8221007F10C07BD4680BCF3
:1005FC00704700BF80B483B000AF0346FB714FF46B
:10060C006143CEF2000397F907204FEA521202F130
:10061C00800253F82220FB7903F01F0322FA03F324
:10062C0003F00103184607F10C07BD4680BC704768
:10063C0080B483B000AF03463960FB7197F9073083
:10064C00002B10DA4FF46D43CEF20003FA7902F06E
:10065C000F02A2F104013A68D2B24FEA0212D2B2EE
:10066C005B181A760DE04FF46143CEF2000397F954
:10067C0007103A68D2B24FEA0212D2B25B1883F872
:10068C00002307F10C07BD4680BC704780B483B0D3
:10069C0000AF0346FB7197F90730002B0FDA4FF4CC
:1006AC006D43CEF20003FA7902F00F02A2F10402BC
:1006BC009B181B7EDBB24FEA1313DBB20CE04FF43A
:1006CC006143CEF2000397F907209B1893F800338F
:1006DC00DBB24FEA1313DBB2184607F10C07BD4629
:1006EC0080BC704780B489B000AFF860B9607A60A4
:1006FC00FB6803F00703FB61FB69C3F10703042BE1
:10070C0028BF0423BB61FB6903F10403062B03D947
:10071C00FB69A3F1030301E04FF000037B61BB69AC
:10072C004FF0010202FA03F303F1FF32BB681A40E7
:10073C007B6902FA03F27B694FF0010101FA03F3C2
:10074C0003F1FF317B680B401343184607F1240774
:10075C00BD4680BC704700BF80B489B000AFF86064
:10076C00B9607A603B60BB6803F00703FB61FB690F
:10077C00C3F10703042B28BF0423BB61FB6903F1FE
:10078C000403062B03D9FB69A3F1030301E04FF02B
:10079C0000037B617B69FA6822FA03F2BB694FF0B4
:1007AC00010101FA03F303F1FF331A407B681A606D
:1007BC007B694FF0010202FA03F303F1FF32FB688D
:1007CC001A403B681A6007F12407BD4680BC70478D
:1007DC0080B400AFBFF34F8F4FF46D42CEF20002E6
:1007EC004FF46D43CEF20003DB6803F4E0614FF08D
:1007FC000403C0F2FA530B43D360BFF34F8F00BF17
:10080C00FDE700BF80B582B000AF78607B6803F174
:10081C00FF326FF07F439A4202D94FF001031DE083
:10082C004EF21003CEF200037A6802F1FF325A60E6
:10083C004FF0FF304FF00F01FFF7FAFE4EF21003AE
:10084C00CEF200034FF000029A604EF21003CEF28B
:10085C0000034FF007021A604FF00003184607F12F
:10086C000807BD4680BD00BF80B582B000AF786080
:10087C007868FFF7F3FD07F10807BD4680BD00BFA0
:10088C0080B586B000AF0346B9607A60FB734FF059
:10089C0000037B61FFF70AFE78617869B9687A68B2
:1008AC00FFF720FF034697F90F2010461946FFF774
:1008BC00BFFE07F11807BD4680BD00BF80B582B0F2
:1008CC0000AF0346FB7197F907301846FFF7FEFDA2
:1008DC0007F10807BD4680BD80B582B000AF034666
:1008EC00FB7197F907301846FFF70CFE07F1080764
:1008FC00BD4680BD80B500AFFFF76AFF80BD00BF6D
:10090C0080B582B000AF78607868FFF77BFF034654
:10091C00184607F10807BD4680BD00BF80B500AF83
:10092C00FFF7C4FD0346184680BD00BF80B584B0F8
:10093C0000AFB9607A603B600346FB7397F90F30E8
:10094C001846FFF7A3FE03461846B9687A683B6859
:10095C00FFF702FF07F11007BD4680BD80B582B0DE
:10096C0000AF0346FB7197F907301846FFF706FEF8
:10097C0007F10807BD4680BD80B582B000AF0346C5
:10098C00FB7197F907301846FFF7DAFD0346184656
:10099C0007F10807BD4680BD80B582B000AF0346A5
:1009AC00FB7197F907301846FFF706FE07F10807A9
:1009BC00BD4680BD80B582B000AF0346FB7197F990
:1009CC0007301846FFF716FE0346184607F10807CE
:1009DC00BD4680BD80B483B000AF78607B68042BCB
:1009EC000CD14EF21003CEF200034EF21002CEF2F6
:1009FC000002126842F004021A600BE04EF210037F
:100A0C00CEF200034EF21002CEF20002126822F077
:100A1C0004021A6007F10C07BD4680BC704700BF8A
:100A2C0080B500AF00F002F880BD00BF80B400AF0D
:100A3C00BD4680BC704700BF80B48BB000AF7860FF
:100A4C0039604FF00003FB614FF00003BB614FF0C6
:100A5C0000037B614FF000033B624FF000033B61EE
:100A6C004FF000037B629FE17B6A4FF0010202FAB8
:100A7C0003F3FB613B681A68FB691340BB61BA69FD
:100A8C00FB699A4240F08C813B685B68122B4BD01F
:100A9C00122B0DD8022B41D0022B04D8002B49D09D
:100AAC00012B31D064E0032B5ED0112B30D05FE0F2
:100ABC004FF00002C1F2210293423BD04FF00002F2
:100ACC00C1F2210293420CD84FF00002C1F2110284
:100ADC0093422FD04FF00002C1F21202934229D060
:100AEC0046E04FF00002C1F23102934222D04FF0A7
:100AFC000002C1F2320293421CD04FF00002C1F24C
:100B0C002202934216D033E03B68DB683B6230E054
:100B1C003B68DB6803F104033B622AE03B68DB685B
:100B2C0003F108033B6224E03B68DB6803F10C0330
:100B3C003B621EE03B689B68002B03D14FF0040323
:100B4C003B6216E03B689B68012B06D14FF0080313
:100B5C003B627B68FA691A610BE04FF008033B6259
:100B6C007B68FA695A6104E04FF000033B6200E0D5
:100B7C0000BFBB69FF2B01D87B6802E07B6803F1E7
:100B8C000403FB60BB69FF2B03D87B6A4FEA83032A
:100B9C0004E07B6AA3F108034FEA83033B61FB6823
:100BAC001A683B694FF00F0101FA03F36FEA030374
:100BBC001A403B69396A01FA03F31A43FB681A605D
:100BCC003B685B6803F08053002B00F0E9804FF426
:100BDC008053C4F202034FF48052C4F202029269B1
:100BEC0042F001029A614FF48053C4F202039B69F4
:100BFC0003F00103BB60BB684FF00003C4F20103B8
:100C0C007A6A4FEA920202F1020253F822307B61B7
:100C1C007B6A03F003034FEA83034FF00F0202FADF
:100C2C0003F36FEA03037A6913407B617A684FF42C
:100C3C000063C4F201039A4216D07A684FF4406301
:100C4C00C4F201039A420CD07A684FF48053C4F278
:100C5C0001039A4202D14FF0020301E04FF003036B
:100C6C0001E04FF0010301E04FF000037A6A02F05B
:100C7C0003024FEA820203FA02F37A6913437B619F
:100C8C004FF00003C4F201037A6A4FEA920202F1B8
:100C9C000202796943F822103B685B6803F48033E5
:100CAC00002B0CD04FF48063C4F201034FF480622C
:100CBC00C4F201021168BA690A431A600DE04FF4DC
:100CCC008063C4F201034FF48062C4F20102116824
:100CDC00BA696FEA02020A401A603B685B6803F467
:100CEC000033002B0CD04FF48063C4F201034FF49B
:100CFC008062C4F201025168BA690A435A600DE07D
:100D0C004FF48063C4F201034FF48062C4F2010219
:100D1C005168BA696FEA02020A405A603B685B6824
:100D2C0003F48013002B0CD04FF48063C4F2010346
:100D3C004FF48062C4F201029168BA690A439A6066
:100D4C000DE04FF48063C4F201034FF48062C4F2EF
:100D5C0001029168BA696FEA02020A409A603B6824
:100D6C005B6803F40013002B0CD04FF48063C4F2C7
:100D7C0001034FF48062C4F20102D168BA690A43DC
:100D8C00DA600DE04FF48063C4F201034FF480622B
:100D9C00C4F20102D168BA696FEA02020A40DA6051
:100DAC007B6A03F101037B627B6A0F2B7FF65CAEDF
:100DBC0007F12C07BD4680BC704700BF80B489B0DA
:100DCC0000AF786039604FF00003FB614FF0000317
:100DDC00BB614FF000037B614FF000033B61DDE032
:100DEC00FB694FF0010202FA03F23B681340BB614E
:100DFC00BB69002B00F0CE80BB69FF2B01D87B6850
:100E0C0002E07B6803F10403FB60BB69FF2B03D892
:100E1C00FB694FEA830304E0FB69A3F108034FEA83
:100E2C0083033B61FB681A683B694FF00F0101FAC1
:100E3C0003F36FEA03031A403B694FF0040101FA14
:100E4C0003F31A43FB681A607B68DA68BB696FEAC4
:100E5C0003031A407B68DA604FF00003C4F201030D
:100E6C00FA694FEA920202F1020253F822307B61D6
:100E7C00FB6903F003034FEA83034FF00F0202FAFE
:100E8C0003F37A6913407B617A684FF40063C4F210
:100E9C0001039A4216D07A684FF44063C4F20103FE
:100EAC009A420CD07A684FF48053C4F201039A42F0
:100EBC0002D14FF0020301E04FF0030301E04FF0C9
:100ECC00010301E04FF00003FA6902F003024FEA5C
:100EDC00820203FA02F27B699A425BD1FB6903F04E
:100EEC0003034FEA83034FF00F0202FA03F37B6113
:100EFC004FF00003C4F20103FA694FEA92004FF07D
:100F0C000002C4F20102F9694FEA910101F10201F8
:100F1C0052F821107A696FEA0202114000F10202C4
:100F2C0043F822104FF48063C4F201034FF4806243
:100F3C00C4F201021168BA696FEA02020A401A602F
:100F4C004FF48063C4F201034FF48062C4F20102D7
:100F5C005168BA696FEA02020A405A604FF4806322
:100F6C00C4F201034FF48062C4F201029168BA69C1
:100F7C006FEA02020A409A604FF48063C4F20103E4
:100F8C004FF48062C4F20102D168BA696FEA0202BE
:100F9C000A40DA60FB6903F10103FB61FB693A6803
:100FAC0022FA03F3002B7FF41BAF07F12407BD4695
:100FBC0080BC704780B485B000AF78600B467B80F6
:100FCC007B689A687B881340002B03D04FF0010399
:100FDC00FB7302E04FF00003FB73FB7B184607F139
:100FEC001407BD4680BC704780B483B000AF7860F6
:100FFC0013460A467A807B707B78002B03D07A8864
:10100C007B681A6104E07B884FEA03427B681A61B3
:10101C0007F10C07BD4680BC704700BF80B483B09D
:10102C0000AF78600B467B807B68DA687B885A401F
:10103C007B68DA6007F10C07BD4680BC704700BFC7
:10104C0080B485B000AF78600B467B804FF4803362
:10105C00FB607A88FB681343FB60FA687B689A61D3
:10106C007A887B689A61FA687B689A617B689B696D
:10107C00FB607B689B6903F48033002B02D04FF03C
:10108C00000301E04FF00103184607F11407BD46B9
:10109C0080BC704780B582B000AF0346FB804FF434
:1010AC008063C4F201035A69FB881340002B09D0FA
:1010BC004FF48063C4F20103FA885A61FB88184626
:1010CC0000F004F807F10807BD4680BD80B483B07A
:1010DC0000AF0346FB8007F10C07BD4680BC704790
:1010EC00F0B58BB006AF78604FF00003FB607B6807
:1010FC00002B02D14FF00103F3E07B6893F8293405
:10110C00DBB2002B07D17B684FF0000283F8282458
:10111C00786805F0D9FA7B684FF0030283F829242C
:10112C007B681B68184602F011FB7B68D3F800E063
:10113C007E686C4606F110050FCD0FC42B6823603A
:10114C0006F104030ECB704602F0D0FA7B681B68E4
:10115C0018464FF0000102F019FB4FF00003FB6042
:10116C0049E07A68FB684FEA4313D31803F128036C
:10117C004FF001025A70FB68DAB27968FB684FEAEB
:10118C004313CB1803F128031A70FB689AB27968E1
:10119C00FB684FEA4313CB1803F130039A807A684B
:1011AC00FB684FEA4313D31803F128034FF00002F6
:1011BC00DA707A68FB684FEA4313D31803F13803EB
:1011CC004FF000021A607A68FB684FEA4313D31899
:1011DC0003F13C034FF000021A607A68FB6803F1DC
:1011EC0002034FEA4313D3184FF000021A60FB6856
:1011FC0003F10103FB60FB680E2BB2D94FF0000327
:10120C00FB6049E07A68FB684FEA4313D31803F597
:10121C000A734FF000025A70FB68DAB27968FB6807
:10122C004FEA4313CB1803F50A731A70FB689AB292
:10123C007968FB684FEA4313CB1803F130039A80AB
:10124C007A68FB684FEA4313D31803F50A734FF01F
:10125C000002DA707A68FB684FEA4313D31803F57F
:10126C000E734FF000021A607A68FB684FEA431362
:10127C00D31803F50F734FF000021A607A68FB68FD
:10128C0003F112034FEA4313D3184FF000021A6014
:10129C00FB6803F10103FB60FB680E2BB2D97B6882
:1012AC00D3F800E07E686C4606F110050FCD0FC434
:1012BC002B68236006F104030ECB704602F074FA1F
:1012CC007B684FF0000283F824207B684FF001020A
:1012DC0083F829247B681B68184603F0D1FB4FF078
:1012EC000003184607F11407BD46F0BD80B582B067
:1012FC0000AF78607B68002B02D14FF0010311E046
:10130C007B684FF0030283F82924786800F050F8CA
:10131C00786805F00BFA7B684FF0000283F82924FB
:10132C004FF00003184607F10807BD4680BD00BF0B
:10133C0080B483B000AF786007F10C07BD4680BC69
:10134C00704700BF80B483B000AF786007F10C0722
:10135C00BD4680BC704700BF80B582B000AF7860DE
:10136C007B6893F82834012B02D14FF002031AE06A
:10137C007B684FF0010283F8282478684FF0010154
:10138C0005F076FE7B681B68184603F06DFB7B68E6
:10139C001B68184602F0BCF97B684FF0000283F81A
:1013AC0028244FF00003184607F10807BD4680BDFE
:1013BC0080B582B000AF78607B6893F82834012B3D
:1013CC0002D14FF002031AE07B684FF0010283F860
:1013DC0028247B681B68184602F0B8F97B681B68E8
:1013EC00184603F00FFB7B681B68184603F048FB9C
:1013FC007B684FF0000283F828244FF00003184656
:10140C0007F10807BD4680BD80B582B000AF78609B
:10141C007B681B68184603F03FFB034603F400434C
:10142C00002B02D0786800F02BFC7B681B681846F8
:10143C0003F032FB034603F48063002B13D07B686C
:10144C001B687A681268B2F8442092B222F4806267
:10145C0092B2A3F84420786805F0E0F978684FF070
:10146C00000100F091F97B681B68184603F014FB2F
:10147C00034603F48043002B0BD07B681B687A680F
:10148C001268B2F8442092B222F4804292B2A3F8CD
:10149C0044207B681B68184603F0FEFA034603F4ED
:1014AC000053002B0BD07B681B687A681268B2F86B
:1014BC00442092B222F4005292B2A3F844207B68EA
:1014CC001B68184603F0E8FA034603F48053002B1C
:1014DC0026D07B681B687A681268B2F8402092B2FA
:1014EC0022F0040292B2A3F840207B681B687A6851
:1014FC001268B2F8402092B222F0080292B2A3F81D
:10150C004020786805F0CEF97B681B687A68126811
:10151C00B2F8442092B222F4805292B2A3F8442042
:10152C007B681B68184603F0B7FA034603F40063A4
:10153C00002B30D07B681B687A681268B2F84020A8
:10154C0092B242F0080292B2A3F840207B681B686A
:10155C007A681268B2F8442092B222F4006292B215
:10156C00A3F844207B681B687A681268B2F84020A4
:10157C0092B242F0040292B2A3F840207B681B683E
:10158C00184603F089FA034603F48053002B02D16A
:10159C00786805F069F97B681B68184603F07CFADB
:1015AC00034603F40073002B0ED07B681B687A682B
:1015BC001268B2F8442092B222F4007292B2A3F8EC
:1015CC004420786805F01CF97B681B68184603F00A
:1015DC0063FA034603F48073002B0BD07B681B6803
:1015EC007A681268B2F8442092B222F4807292B2F5
:1015FC00A3F8442007F10807BD4680BD80B483B032
:10160C0000AF78600B46FB7007F10C07BD4680BC41
:10161C00704700BF80B483B000AF78600B46FB709E
:10162C0007F10C07BD4680BC704700BF80B483B087
:10163C0000AF786007F10C07BD4680BC704700BF57
:10164C0080B483B000AF786007F10C07BD4680BC56
:10165C00704700BF80B483B000AF786007F10C070F
:10166C00BD4680BC704700BF80B483B000AF7860CB
:10167C0007F10C07BD4680BC704700BF80B483B037
:10168C0000AF786007F10C07BD4680BC704700BF07
:10169C0080B483B000AF78600B46FB7007F10C0789
:1016AC00BD4680BC704700BF80B483B000AF78608B
:1016BC000B46FB7007F10C07BD4680BC704700BFA2
:1016CC0080B483B000AF786007F10C07BD4680BCD6
:1016DC00704700BF80B483B000AF786007F10C078F
:1016EC00BD4680BC704700BF80B582B000AF78604B
:1016FC007B6893F82834012B02D14FF0020315E0DC
:10170C007B684FF0010283F8282478684FF00101C0
:10171C0005F0AEFC7B681B68184603F0A5F97B68E6
:10172C004FF0000283F828244FF00003184607F10D
:10173C000807BD4680BD00BF80B582B000AF7860A1
:10174C007B6893F82834012B02D14FF0020315E08B
:10175C007B684FF0010283F8282478684FF0000171
:10176C0005F086FC7B681B68184603F089F97B68DA
:10177C004FF0000283F828244FF00003184607F1BD
:10178C000807BD4680BD00BF80B582B000AF786051
:10179C000B46FB707B6893F82834012B02D14FF079
:1017AC00020316E07B684FF0010283F828247B6863
:1017BC00FA7883F824207B681A68FB78104619465F
:1017CC0003F03CF97B684FF0000283F828244FF0BB
:1017DC000003184607F10807BD4680BD80B584B0EC
:1017EC0000AF7860F9703A80BB704FF00003FB7269
:1017FC004FF00003FB60FB785BB2002B0ADAFB783E
:10180C0003F07F034FEA431303F128037A68D318DC
:10181C00FB6009E0FB7803F07F034FEA431303F509
:10182C000A737A68D318FB60FB7803F07F03DAB293
:10183C00FB681A70FB784FEAD313DBB21A46FB68CD
:10184C005A703A88FB681A61FB68BA78DA707B6860
:10185C0093F82834012B02D14FF0020310E07B687F
:10186C004FF0010283F828247B681B681846F9683E
:10187C0001F0DEFF7B684FF0000283F82824FB7A2E
:10188C00184607F11007BD4680BD00BF80B584B077
:10189C0000AF78600B46FB704FF00003FB60FB78E9
:1018AC005BB2002B0ADAFB7803F07F034FEA431399
:1018BC0003F128037A68D318FB6009E0FB7803F086
:1018CC007F034FEA431303F50A737A68D318FB605E
:1018DC00FB7803F07F03DAB2FB681A70FB784FEAEF
:1018EC00D313DBB21A46FB685A707B6893F8283422
:1018FC00012B02D14FF0020311E07B684FF0010283
:10190C0083F828247B681B681846F96802F0BAFA39
:10191C007B684FF0000283F828244FF00003184630
:10192C0007F11007BD4680BD80B586B000AFF860EA
:10193C007A603B600B46FB724FF000037B61FB7AD5
:10194C0003F07F034FEA431303F50A73FA68D318C5
:10195C007B617B697A685A617B693A689A617B69B9
:10196C004FF00002DA617B694FF000025A70FB7A8B
:10197C0003F07F03DAB27B691A70FB7A03F07F0302
:10198C00002B06D1FB681B681846796902F044FCF1
:10199C0005E0FB681B681846796902F03DFC4FF0C6
:1019AC000003184607F11807BD4680BD80B483B00C
:1019BC0000AF78600B46FB70FB7803F00F037A687E
:1019CC0003F112034FEA4313D31803F104031B680A
:1019DC009BB2184607F10C07BD4680BC704700BF90
:1019EC0080B586B000AFF8607A603B600B46FB7246
:1019FC004FF000037B61FB7A03F07F034FEA431344
:101A0C0003F12803FA68D3187B617B697A685A6101
:101A1C007B693A689A617B694FF00002DA617B69F5
:101A2C004FF001025A70FB7A03F07F03DAB27B6944
:101A3C001A70FB7A03F07F03002B06D1FB681B683E
:101A4C001846796902F0E8FB05E0FB681B6818464C
:101A5C00796902F0E1FB4FF00003184607F1180713
:101A6C00BD4680BD80B584B000AF78600B46FB707E
:101A7C004FF00003FB60FB785BB2002B0ADAFB78BB
:101A8C0003F07F034FEA431303F128037A68D3185A
:101A9C00FB6007E0FB784FEA431303F50A737A689F
:101AAC00D318FB60FB684FF001029A70FB7803F0CF
:101ABC007F03DAB2FB681A70FB784FEAD313DBB200
:101ACC001A46FB685A707B6893F82834012B02D1B4
:101ADC004FF002031FE07B684FF0010283F82824CB
:101AEC007B681B681846F96802F082FEFB7803F0ED
:101AFC007F03002B08D17B681A687B6803F22C43A8
:101B0C001046194603F01AF87B684FF0000283F870
:101B1C0028244FF00003184607F11007BD4680BD7E
:101B2C0080B584B000AF78600B46FB704FF00003BB
:101B3C00FB60FB785BB2002B0ADAFB7803F07F03C7
:101B4C004FEA431303F128037A68D318FB6007E0CC
:101B5C00FB784FEA431303F50A737A68D318FB60DA
:101B6C00FB684FF000029A70FB7803F07F03DAB247
:101B7C00FB681A70FB784FEAD313DBB21A46FB688A
:101B8C005A707B6893F82834012B02D14FF0020372
:101B9C0011E07B684FF0010283F828247B681B68F6
:101BAC001846F96802F092FE7B684FF0000283F849
:101BBC0028244FF00003184607F11007BD4680BDDE
:101BCC0080B582B000AF78600B46FB707B6893F8F1
:101BDC002834012B02D14FF002031EE07B684FF03A
:101BEC00010283F82824FB785BB2002B09DA7B68AE
:101BFC001A68FB7803F07F031046194601F0FEFDCE
:101C0C0004E07B681B68184601F006FE7B684FF009
:101C1C00000283F828244FF00003184607F1080748
:101C2C00BD4680BD80B582B000AF78607B681B6814
:101C3C00184602F091FF0346184607F10807BD4607
:101C4C0080BD00BF80B582B000AF78607B681B6838
:101C5C00184602F097FF0346184607F10807BD46E1
:101C6C0080BD00BF80B483B000AF78607B6893F810
:101C7C002934DBB2184607F10C07BD4680BC70470F
:101C8C0090B589B000AF78604FF00003BB614FF0A6
:101C9C000003FB834FF00003FB754FF00003FB8147
:101CAC004FF00003BB815AE3FB899BB2DBB203F01C
:101CBC000F03FB75FB7D002B40F04881FB899BB229
:101CCC0003F01003002B54D17B681A687B681B68E7
:101CDC001B889BB223F4E14323F070039BB2138067
:101CEC007B6803F12803BB617B681B68B3F8503039
:101CFC009BB21A46BB691B784FEAC303D31803F196
:101D0C0002034FEA43027B681B68D31803F5806318
:101D1C001B689BB24FEA83534FEA9353BA69D36162
:101D2C00BB695A69BB69DB69D218BB695A617868AF
:101D3C004FF0000104F048FD7B6893F82430DBB2CF
:101D4C00002B00F00C83BB699B69002B40F00783D0
:101D5C007B681B687A6892F82420D2B262F07F020A
:101D6C00D2B2A3F84C207B684FF0000283F82420F9
:101D7C00F5E27B6803F50A73BB617B681B681B8803
:101D8C009BB2BB81BB899BB203F40063002B36D0A2
:101D9C007B681B68B3F850309BB21A46BB691B7842
:101DAC004FEAC303D31803F106034FEA43027B68DF
:101DBC001B68D31803F580631B689BB24FEA8353EF
:101DCC004FEA9353BA69D3617B6818687B6803F256
:101DDC002C41BB699A88BB69DB699BB202F038FF66
:101DEC007B681A687B681B681B8899B240F68F73F6
:101DFC000B409BB21380786804F0B8FCAFE2BB894F
:101E0C009BB29BB21BB2002B80F2A9827B681A6832
:101E1C007B681B681B8899B240F68F730B409BB292
:101E2C0013807B681B68B3F850309BB21A46BB69B1
:101E3C001B784FEAC303D31803F106034FEA43029E
:101E4C007B681B68D31803F580631B689BB24FEA51
:101E5C0083534FEA9353BA69D361BB69DB69002B97
:101E6C0011D07B681868BB695969BB699A88BB69D2
:101E7C00DB699BB202F0ECFEBB695A69BB69DB699A
:101E8C00D218BB695A6178684FF0000104F080FCED
:101E9C007B681B68B3F850309BB203F106034FEA22
:101EAC0043027B681B68D31803F580633B61BB69F5
:101EBC001B693E2B1BD9BB691B694FEA5313BB83B0
:101ECC00BB691B6903F01F03002B03D1BB8B03F110
:101EDC00FF33BB83BB8B4FEA83239BB26FEA434335
:101EEC006FEA53439BB21A463B691A6015E0BB6913
:101EFC001B694FEA5303BB83BB691B6903F00103E6
:101F0C00002B03D0BB8B03F10103BB83BB8B4FEACC
:101F1C0083239BB21A463B691A607B681B681B883B
:101F2C009BB223F4804323F070039CB284F480535F
:101F3C009CB284F400539CB27B681A6848F280030C
:101F4C00CFF6FF7323439BB2138008E27B681B68B8
:101F5C001A46FB7D4FEA8303D3181B889BB2BB81C7
:101F6C00BB899BB29BB21BB2002B80F2E9807B68D1
:101F7C001B681A46FB7D4FEA8303D2187B681B68EB
:101F8C001946FB7D4FEA8303CB181B8899B240F6A8
:101F9C008F730B409BB21380FB7D4FEA431303F509
:101FAC000A737A68D318BB61BB699B7A002B28D162
:101FBC007B681B68B3F850309BB21A46BB691B7820
:101FCC004FEAC303D31803F106034FEA43027B68BD
:101FDC001B68D31803F580631B689BB24FEA8353CD
:101FEC004FEA9353FB83FB8B002B00F084807B68C0
:101FFC001868BB695969BB699A88FB8B02F028FE8B
:10200C0079E07B681B681A46BB691B784FEA83032F
:10201C00D3181B889BB203F48043002B27D07B681A
:10202C001B68B3F850309BB21A46BB691B784FEA59
:10203C00C303D31803F102034FEA43027B681B6806
:10204C00D31803F580631B689BB24FEA83534FEAA6
:10205C009353FB83FB8B002B30D07B681868BB69D8
:10206C005969BB69DA88FB8B02F0F2FD26E07B68CC
:10207C001B68B3F850309BB21A46BB691B784FEA09
:10208C00C303D31803F106034FEA43027B681B68B2
:10209C00D31803F580631B689BB24FEA83534FEA56
:1020AC009353FB83FB8B002B08D07B681868BB69B0
:1020BC005969BB691A89FB8B02F0CAFD7B681B68E6
:1020CC001A46BB691B784FEA8303D2187B681B68DE
:1020DC001946BB691B784FEA8303CB181B8899B24E
:1020EC0040F60F730B4099B248F2C003CFF6FF7362
:1020FC000B439BB21380BB69DA69FB8BD218BB69AB
:10210C00DA61BB695A69FB8BD218BB695A61BB692E
:10211C009B69002B04D0FA8BBB691B699A4206D2CF
:10212C00BB691B787868194604F032FB08E0BB6980
:10213C001978BB695A69BB699B697868FFF7F4FB2E
:10214C00BB899BB203F08003002B00F00881FB7D60
:10215C004FEA431303F128037A68D318BB617B68F9
:10216C001B681A46FB7D4FEA8303D2187B681B68F9
:10217C001946FB7D4FEA8303CB181B889BB223F4D3
:10218C00E14323F070039BB21380BB699B7A002B55
:10219C002CD17B681B68B3F850309BB21A46BB69D4
:1021AC001B784FEAC303D31803F102034FEA43022F
:1021BC007B681B68D31803F580631B689BB24FEADE
:1021CC0083534FEA9353BA69D361BB69DB69002B24
:1021DC0000F08E807B681868BB695969BB699A8866
:1021EC00BB69DB699BB202F0E3FC81E07B681B6896
:1021FC001A46BB691B784FEA8303D3181B889BB222
:10220C0003F04003002B2BD07B681B68B3F85030D5
:10221C009BB21A46BB691B784FEAC303D31803F170
:10222C0002034FEA43027B681B68D31803F58063F3
:10223C001B689BB24FEA83534FEA9353BA69D3613D
:10224C00BB69DB69002B36D07B681868BB695969A0
:10225C00BB69DA88BB69DB699BB202F0A9FC2AE096
:10226C007B681B68B3F850309BB21A46BB691B786D
:10227C004FEAC303D31803F106034FEA43027B680A
:10228C001B68D31803F580631B689BB24FEA83531A
:10229C004FEA9353BA69D361BB69DB69002B0AD04F
:1022AC007B681868BB695969BB691A89BB69DB69AA
:1022BC009BB202F07DFC7B681B681A46BB691B78DD
:1022CC004FEA8303D2187B681B681946BB691B78DD
:1022DC004FEA8303CB181B8899B240F60F730B405F
:1022EC0099B24CF28003CFF6FF730B439BB2138071
:1022FC007B681B68B3F850309BB21A46BB691B78DD
:10230C004FEAC303D31803F102034FEA43027B687D
:10231C001B68D31803F580631B689BB24FEA835389
:10232C004FEA9353BA69D361BB695A69BB69DB69DC
:10233C00D218BB695A61BB699B69002B06D1BB697A
:10234C001B787868194604F03FFA08E0BB691978E5
:10235C00BB695A69BB699B697868FFF741FB7B686D
:10236C001B68B3F844309BB21A46FA819BB21BB27D
:10237C00002BFFF699AC4FF00003184607F1240729
:10238C00BD4690BD80B487B000AFF8607B600B4653
:10239C007B8113463B814FF000037B617B8903F00B
:1023AC008003002B0AD07B8903F07F034FEA431391
:1023BC0003F12803FA68D3187B6107E07B894FEAA5
:1023CC00431303F50A73FA68D3187B613B89002B1E
:1023DC0008D17B694FF000029A727B689AB27B69D4
:1023EC009A800DE07B694FF001029A727B689AB279
:1023FC007B69DA807B684FEA13439AB27B691A8156
:10240C004FF00003184607F11C07BD4680BC70470F
:10241C0080B483B000AF78600B46FB7007F10C07FB
:10242C00BD4680BC704700BF80B400AF4FF48053F2
:10243C00C4F202034FF48052C4F20202526822F03A
:10244C0003025A604FF48053C4F202034FF48052DB
:10245C00C4F20202126822F0847222F480321A60F2
:10246C004FF48053C4F202034FF48052C4F20202C0
:10247C00126822F480221A604FF48053C4F20203D3
:10248C004FF000025A604FF48053C4F202034FF431
:10249C008052C4F20202126822F0F80242F080026A
:1024AC001A604FF48053C4F202034FF000029A609A
:1024BC0040F28803C2F200034FF49052C0F27A0249
:1024CC001A60BD4680BC704780B586B000AF78609E
:1024DC004FF000033B617B681B6803F00103002B8A
:1024EC0000F0C7804FF48053C4F202035B6803F022
:1024FC000C03042B11D04FF48053C4F202035B681D
:10250C0003F00C03082B1AD14FF48053C4F20203CE
:10251C005B6803F48033002B11D04FF48053C4F26A
:10252C0002031B6803F40033002B00F0A1807B68CE
:10253C005B68002B40F09C804FF0010314E37B6838
:10254C005B68B3F5803F0CD14FF48053C4F20203A7
:10255C004FF48052C4F20202126842F480321A60C4
:10256C0052E07B685B68002B18D14FF48053C4F2A7
:10257C0002034FF48052C4F20202126822F4803239
:10258C001A604FF48053C4F202034FF48052C4F229
:10259C000202126822F480221A6035E07B685B68C4
:1025AC00B3F5A02F18D14FF48053C4F202034FF4AB
:1025BC008052C4F20202126842F480221A604FF474
:1025CC008053C4F202034FF48052C4F20202126828
:1025DC0042F480321A6017E04FF48053C4F20203C5
:1025EC004FF48052C4F20202126822F480321A6054
:1025FC004FF48053C4F202034FF48052C4F202022F
:10260C00126822F480221A607B685B68002B17D05A
:10261C00FDF720FE386109E0FDF71CFE02463B6920
:10262C00D31A642B02D94FF003039DE24FF480536D
:10263C00C4F202031B6803F40033002BECD018E047
:10264C00FDF708FE386109E0FDF704FE02463B6920
:10265C00D31A642B02D94FF0030385E24FF4805355
:10266C00C4F202031B6803F40033002BECD100E02E
:10267C0000BF7B681B6803F00203002B00F08F8007
:10268C004FF48053C4F202035B6803F00C03002B7D
:10269C0011D04FF48053C4F202035B6803F00C03B7
:1026AC00082B2AD14FF48053C4F202035B6803F465
:1026BC008033002B21D14FF48053C4F202031B68EA
:1026CC0003F00203002B06D07B681B69012B02D0A0
:1026DC004FF0010348E24FF48053C4F202034FF46D
:1026EC008052C4F20202126822F0F8017A68526930
:1026FC004FEAC2020A431A6051E07B681B69002B47
:10270C002FD04FF00003C4F242234FF001021A60A5
:10271C00FDF7A0FD386109E0FDF79CFD02463B6921
:10272C00D31A022B02D94FF003031DE24FF480534E
:10273C00C4F202031B6803F00203002BECD04FF42D
:10274C008053C4F202034FF48052C4F202021268A6
:10275C0022F0F8017A6852694FEAC2020A431A6001
:10276C001DE04FF00003C4F242234FF000021A6048
:10277C00FDF770FD386109E0FDF76CFD02463B6921
:10278C00D31A022B02D94FF00303EDE14FF480531F
:10279C00C4F202031B6803F00203002BECD17B682C
:1027AC001B6803F00803002B44D07B689B69002B4B
:1027BC0022D04FF49063C4F242234FF001021A600E
:1027CC00FDF748FD386109E0FDF744FD02463B6921
:1027DC00D31A022B02D94FF00303C5E14FF48053F7
:1027EC00C4F202035B6A03F00203002BECD04FF03F
:1027FC00010000F02DFD1DE04FF49063C4F2422364
:10280C004FF000021A60FDF725FD386109E0FDF775
:10281C0021FD02463B69D31A022B02D94FF0030368
:10282C00A2E14FF48053C4F202035B6A03F002038B
:10283C00002BECD17B681B6803F00403002B00F029
:10284C00F9804FF00003FB754FF48053C4F2020380
:10285C00DB6903F08053002B17D14FF48053C4F283
:10286C0002034FF48052C4F20202D26942F0805249
:10287C00DA614FF48053C4F20203DB6903F0805336
:10288C00FB60FB684FF00103FB754FF4E043C4F2AF
:10289C0000031B6803F48073002B22D14FF4E04338
:1028AC00C4F200034FF4E042C4F20002126842F496
:1028BC0080721A60FDF7CEFC386109E0FDF7CAFCA6
:1028CC0002463B69D31A642B02D94FF003034BE148
:1028DC004FF4E043C4F200031B6803F48073002B35
:1028EC00ECD07B68DB68012B0CD14FF48053C4F225
:1028FC0002034FF48052C4F20202126A42F0010247
:10290C001A6251E07B68DB68002B18D14FF48053BE
:10291C00C4F202034FF48052C4F20202126A22F093
:10292C0001021A624FF48053C4F202034FF4805236
:10293C00C4F20202126A22F004021A6234E07B68CA
:10294C00DB68052B18D14FF48053C4F202034FF40B
:10295C008052C4F20202126A42F004021A624FF46C
:10296C008053C4F202034FF48052C4F20202126A82
:10297C0042F001021A6217E04FF48053C4F20203D2
:10298C004FF48052C4F20202126A22F001021A625F
:10299C004FF48053C4F202034FF48052C4F202028B
:1029AC00126A22F004021A627B68DB68002B19D0D1
:1029BC00FDF750FC38610BE0FDF74CFC02463B691F
:1029CC00D21A41F288339A4202D94FF00303CBE07A
:1029DC004FF48053C4F202031B6A03F00203002B72
:1029EC00EAD018E0FDF736FC38610BE0FDF732FC5D
:1029FC0002463B69D21A41F288339A4202D94FF00F
:102A0C000303B1E04FF48053C4F202031B6A03F0DA
:102A1C000203002BEAD1FB7D012B0BD14FF4805329
:102A2C00C4F202034FF48052C4F20202D26922F0C3
:102A3C008052DA617B68DB69002B00F093804FF4E5
:102A4C008053C4F202035B6803F00C03082B00F004
:102A5C0086807B68DB69022B62D14FF06003C4F285
:102A6C0042234FF000021A60FDF7F4FB386109E0D5
:102A7C00FDF7F0FB02463B69D31A022B02D94FF04B
:102A8C00030371E04FF48053C4F202031B6803F09C
:102A9C000073002BECD17B681B6AB3F5803F0ED121
:102AAC004FF48053C4F202034FF48052C4F202027A
:102ABC00526822F400317A6892680A435A604FF4E3
:102ACC008053C4F202034FF48052C4F202025268E3
:102ADC0022F474117A68106A7A68526A02430A43C3
:102AEC005A604FF06003C4F242234FF001021A60A7
:102AFC00FDF7B0FB386109E0FDF7ACFB02463B6922
:102B0C00D31A022B02D94FF003032DE04FF480535C
:102B1C00C4F202031B6803F00073002BECD021E01D
:102B2C004FF06003C4F242234FF000021A60FDF72D
:102B3C0091FB386109E0FDF78DFB02463B69D31A26
:102B4C00022B02D94FF003030EE04FF48053C4F272
:102B5C0002031B6803F00073002BECD102E04FF072
:102B6C00010301E04FF00003184607F11807BD46BA
:102B7C0080BD00BF80B584B000AF786039604FF085
:102B8C000003FB604FF40053C4F202031B6803F014
:102B9C0007023B689A421AD24FF40053C4F2020364
:102BAC004FF40052C4F20202126822F007013A6894
:102BBC000A431A604FF40053C4F202031B6803F07B
:102BCC0007023B689A4202D04FF0010314E17B6884
:102BDC001B6803F00203002B0ED04FF48053C4F299
:102BEC0002034FF48052C4F20202526822F0F00148
:102BFC007A6892680A435A607B681B6803F0010389
:102C0C00002B00F08A807B685B68012B0BD14FF4A2
:102C1C008053C4F202031B6803F40033002B1ED153
:102C2C004FF00103E8E07B685B68022B0BD14FF49B
:102C3C008053C4F202031B6803F00073002B0ED107
:102C4C004FF00103D8E04FF48053C4F202031B6829
:102C5C0003F00203002B02D14FF00103CCE04FF440
:102C6C008053C4F202034FF48052C4F20202526841
:102C7C0022F003017A6852680A435A60FDF7EAFAB7
:102C8C00F8607B685B68012B16D10BE0FDF7E2FA6C
:102C9C000246FB68D21A41F288339A4202D94FF0AD
:102CAC000303A9E04FF48053C4F202035B6803F002
:102CBC000C03042BEAD130E07B685B68022B22D139
:102CCC000BE0FDF7C7FA0246FB68D21A41F28833D3
:102CDC009A4202D94FF003038EE04FF48053C4F2B2
:102CEC0002035B6803F00C03082BEAD115E0FDF737
:102CFC00B1FA0246FB68D21A41F288339A4203D9E0
:102D0C004FF0030378E000BF4FF48053C4F202038A
:102D1C005B6803F00C03002BE9D14FF40053C4F2B1
:102D2C0002031B6803F007023B689A421AD94FF45E
:102D3C000053C4F202034FF40052C4F202021268B0
:102D4C0022F007013A680A431A604FF40053C4F2A8
:102D5C0002031B6803F007023B689A4202D04FF053
:102D6C00010349E07B681B6803F00403002B0ED0C1
:102D7C004FF48053C4F202034FF48052C4F20202A7
:102D8C00526822F4E0617A68D2680A435A607B6820
:102D9C001B6803F00803002B10D04FF48053C4F2CF
:102DAC0002034FF48052C4F20202526822F46051C2
:102DBC007A6812694FEAC2020A435A6000F092F82C
:102DCC0002464FF48053C4F202035B6803F0F00335
:102DDC004FEA131147F29C43C0F600035B5C22FAE6
:102DEC0003F240F28803C2F200031A604FF00000B5
:102DFC00FDF7FCF94FF00003184607F11007BD462C
:102E0C0080BD00BF80B58AB000AFF860B9607A6051
:102E1C0007F118034FF000021A6003F104034FF09E
:102E2C0000021A6003F104034FF000021A6003F170
:102E3C0004034FF000021A6003F104034FF0020385
:102E4C00FB614FF003037B624FF000033B624FF4D6
:102E5C008073BB614FF48053C4F202034FF4805271
:102E6C00C4F20202926942F004029A614FF4805358
:102E7C00C4F202039B6903F004037B617B6907F1D5
:102E8C0018034FF40060C4F201001946FDF7D4FD9D
:102E9C004FF48053C4F202034FF48052C4F2020286
:102EAC00526822F0E061BA680A435A6007F12807B9
:102EBC00BD4680BD80B400AF4FF04C03C4F242233A
:102ECC004FF001021A60BD4680BC704780B400AF61
:102EDC004FF04C03C4F242234FF000021A60BD467F
:102EEC0080BC704790B48AB000AF47F26843C0F61C
:102EFC00000307F10404186859689A68DB680FC46A
:102F0C0047F27843C0F600033A461B8813804FF013
:102F1C000003FB614FF00003BB614FF000037B62C9
:102F2C004FF000037B614FF000033B624FF4805382
:102F3C00C4F202035B68FB61FB6903F00C03042B16
:102F4C0002D0082B06D03BE04FF49053C0F27A032A
:102F5C003B623BE0FB6903F470134FEA934307F1C8
:102F6C002802D31813F8243C7B61FB6903F48033EB
:102F7C00002B1AD04FF48053C4F202035B6803F4A5
:102F8C0000334FEA534307F12802D31813F8283CB7
:102F9C00BB614FF49053C0F27A03BA69B3FBF2F3FE
:102FAC007A6902FB03F37B6207E07A694FF41063E2
:102FBC00C0F23D0303FB02F37B627B6A3B6205E0DC
:102FCC004FF49053C0F27A033B6200BF3B6A184641
:102FDC0007F12807BD4690BC704700BF80B400AF16
:102FEC0040F28803C2F200031B681846BD4680BC41
:102FFC00704700BF80B500AFFFF7F0FF02464FF4FB
:10300C008053C4F202035B6803F4E0634FEA1321BC
:10301C0047F2AC43C0F600035B5C22FA03F318469C
:10302C0080BD00BF80B500AFFFF7D8FF02464FF45C
:10303C008053C4F202035B6803F460534FEAD3215C
:10304C0047F2AC43C0F600035B5C22FA03F318466C
:10305C0080BD00BF80B483B000AF78607B684FF058
:10306C000F021A604FF48053C4F202031B6803F47E
:10307C008023002B04D07B684FF4A0225A6011E00F
:10308C004FF48053C4F202031B6803F48033002B0B
:10309C0004D07B684FF480325A6003E07B684FF0B9
:1030AC0000025A604FF48053C4F202035B6803F4CD
:1030BC0000327B689A604FF48053C4F202031B68A1
:1030CC0003F00103002B04D07B684FF001021A615E
:1030DC0003E07B684FF000021A614FF48053C4F296
:1030EC0002031B6803F0F8034FEAD3027B685A61B2
:1030FC004FF48053C4F202031B6A03F00403002B49
:10310C0004D07B684FF00502DA6011E04FF4805375
:10311C00C4F202031B6A03F00103002B04D07B688A
:10312C004FF00102DA6003E07B684FF00002DA60D6
:10313C004FF48053C4F202035B6A03F00103002BCB
:10314C0004D07B684FF001029A6103E07B684FF07A
:10315C0000029A614FF48053C4F202031B6803F01F
:10316C008073002B04D07B684FF00202DA6103E01D
:10317C007B684FF00102DA614FF48053C4F2020312
:10318C005B6803F480327B681A624FF48053C4F29C
:10319C0002035B6803F470127B685A6207F10C0738
:1031AC00BD4680BC704700BF80B483B000AF786070
:1031BC0039607B684FF00F021A604FF48053C4F2F1
:1031CC0002035B6803F003027B685A604FF4805380
:1031DC00C4F202035B6803F0F0027B689A604FF460
:1031EC008053C4F202035B6803F4E0627B68DA602C
:1031FC004FF48053C4F202035B6803F460534FEA4C
:10320C00D3027B681A614FF40053C4F202031B68AB
:10321C0003F007023B681A6007F10C07BD4680BC3F
:10322C00704700BF80B500AF4FF48053C4F2020367
:10323C009B6803F08003002B08D000F02FF841F2BC
:10324C000A03C4F202034FF080021A7080BD00BF63
:10325C0080B485B000AF786040F28803C2F20003FE
:10326C001A6844F6D353C1F26203A3FB02134FEA6C
:10327C0053237A6802FB03F3FB6000BFFB68002B4F
:10328C000CBF00220122D2B203F1FF33FB60002AF3
:10329C00F3D107F11407BD4680BC704780B400AF72
:1032AC00BD4680BC704700BF80B586B000AF78606B
:1032BC004FF000033B614FF00003FB607B681B6821
:1032CC0003F00103002B00F0BA804FF00003FB75F4
:1032DC004FF48053C4F20203DB6903F08053002BDC
:1032EC0017D14FF48053C4F202034FF48052C4F24E
:1032FC000202D26942F08052DA614FF48053C4F278
:10330C000203DB6903F08053BB60BB684FF0010321
:10331C00FB754FF4E043C4F200031B6803F48073A5
:10332C00002B22D14FF4E043C4F200034FF4E042EF
:10333C00C4F20002126842F480721A60FCF78AFF31
:10334C00386109E0FCF786FF02463B69D31A642B0F
:10335C0002D94FF003039EE04FF4E043C4F20003A4
:10336C001B6803F48073002BECD04FF48053C4F231
:10337C0002031B6A03F44073FB60FB68002B40D014
:10338C007B685B6803F44072FB689A4239D04FF457
:10339C008053C4F202031B6A23F44073FB604FF4A6
:1033AC008863C4F242234FF001021A604FF4886321
:1033BC00C4F242234FF000021A604FF48053C4F25F
:1033CC000203FA681A62FB6803F00103002B18D0A1
:1033DC00FCF740FF38610BE0FCF73CFF02463B6911
:1033EC00D21A41F288339A4202D94FF0030352E0C9
:1033FC004FF48053C4F202031B6A03F00203002B48
:10340C00EAD04FF48053C4F202034FF48052C4F25A
:10341C000202126A22F440717A6852680A431A62F4
:10342C00FB7D012B0BD14FF48053C4F202034FF4FC
:10343C008052C4F20202D26922F08052DA617B68B7
:10344C001B6803F00203002B0ED04FF48053C4F220
:10345C0002034FF48052C4F20202526822F440413B
:10346C007A6892680A435A607B681B6803F0100301
:10347C00002B0ED04FF48053C4F202034FF4805251
:10348C00C4F20202526822F480017A68D2680A43BC
:10349C005A604FF00003184607F11807BD4680BD6F
:1034AC0080B485B000AF78604FF00003FB607B68A0
:1034BC004FF001021A604FF48053C4F202031B6AEE
:1034CC0003F44073FB607B68FA685A607B681B6886
:1034DC0043F002027B681A604FF48053C4F202037B
:1034EC005B6803F440427B689A607B681B6843F01E
:1034FC0010027B681A604FF48053C4F202035B68BD
:10350C0003F480027B68DA6007F11407BD4680BCC7
:10351C00704700BF90B58DB000AF786047F27C4328
:10352C00C0F6000307F10C04186859689A68DB6848
:10353C000FC447F28C43C0F6000307F108021B8846
:10354C0013804FF000037B624FF00003FB624FF0DF
:10355C0000033B624FF00003FB614FF00003BB62C2
:10356C007B68022B00F0A680102B02D0012B61D0BF
:10357C00B4E04FF48053C4F202035B68FB614FF478
:10358C008053C4F202031B6803F08073002B00F01D
:10359C00A680FB6903F470134FEA934307F13001E3
:1035AC00CB1813F8243C3B62FB6903F48033002BEB
:1035BC001FD04FF48053C4F202035B6803F4003352
:1035CC004FEA534307F13002D31813F8283C7B62BF
:1035DC00FB6903F48033002B13D04FF49053C0F2EB
:1035EC007A037A6AB3FBF2F33A6A02FB03F3FB62E7
:1035FC0007E03A6A4FF41063C0F23D0303FB02F399
:10360C00FB624FF48053C4F202035B6803F4800343
:10361C00002B02D0FB6ABB6261E0FB6A4FEA4302FB
:10362C004AF6AB23CAF6AA23A3FB02134FEA5303B1
:10363C00BB6254E04FF48053C4F202031B6AFB617B
:10364C00FB6903F44073B3F5807F08D1FB6903F089
:10365C000203002B03D04FF40043BB6229E0FB694B
:10366C0003F44073B3F5007F0CD14FF48053C4F2D4
:10367C0002035B6A03F00203002B03D049F64043BC
:10368C00BB6216E0FB6903F44073B3F5407F0CD1C9
:10369C004FF48053C4F202031B6803F40033002B75
:1036AC0003D04FF22443BB6203E04FF00003BB6234
:1036BC0016E015E0FFF7B6FC02464FF48053C4F257
:1036CC0002035B6803F440434FEA933303F10103B5
:1036DC004FEA4303B2FBF3F3BB6201E000E000BF2F
:1036EC00BB6A184607F13407BD4690BD84B080B460
:1036FC0083B000AF786007F1140080E80E004FF043
:10370C000003184607F10C07BD4680BC04B0704797
:10371C0080B485B000AF78604FF00003FB604FF4CD
:10372C003F43FB607B68B3F840309AB2FB689BB2B6
:10373C0013439AB27B68A3F840204FF0000318465D
:10374C0007F11407BD4680BC704700BF80B485B03C
:10375C0000AF78604FF00003FB604FF43D43FB601B
:10376C007B68B3F840309AB2FB689BB26FEA0303F4
:10377C009BB213409AB27B68A3F840204FF0000331
:10378C00184607F11407BD4680BC704780B483B05F
:10379C0000AF78600B46FB704FF00003184607F142
:1037AC000C07BD4680BC704784B080B582B000AFBA
:1037BC00786007F1140080E80E007B684FF001027E
:1037CC00A3F840207B684FF00002A3F840207B68F0
:1037DC004FF00002A3F844207B684FF00002A3F8DE
:1037EC0050207868FFF794FF4FF00003184607F15C
:1037FC000807BD46BDE8804004B0704780B483B074
:10380C0000AF786039604FF00003184607F10C07E1
:10381C00BD4680BC704700BF80B483B000AF7860F9
:10382C004FF00003184607F10C07BD4680BC7047EB
:10383C0090B484B000AF786039603B68DB78032BC0
:10384C0067D801A252F823F065380008EF38000859
:10385C0095380008BF3800087A683B681B784FEA37
:10386C008303D21879683B681B784FEA8303CB1823
:10387C001B889BB223F4EC4323F070039BB243F4FC
:10388C0000739BB2138045E07A683B681B784FEA63
:10389C008303D21879683B681B784FEA8303CB18F3
:1038AC001B889BB223F4EC4323F070039BB2138070
:1038BC0030E07A683B681B784FEA8303D21879684A
:1038CC003B681B784FEA8303CB181B889BB223F40D
:1038DC00EC4323F070039BB243F4C0639BB21380A0
:1038EC0018E07A683B681B784FEA8303D218796832
:1038FC003B681B784FEA8303CB181B889BB223F4DD
:10390C00EC4323F070039BB243F480639BB21380AF
:10391C0000E000BF7A683B681B784FEA8303D2183B
:10392C0079683B681B784FEA8303CB181B8899B2E4
:10393C0040F60F730B4099B23B681B780B4399B25E
:10394C0048F28003CFF6FF730B439BB213803B68A6
:10395C009B7A002B40F008813B685B78002B5AD097
:10396C007B68B3F850309BB21A463B681B784FEA21
:10397C00C303D3184FEA43027B68D31803F5806363
:10398C003A6892884FEA520292B24FEA42021A60A7
:10399C007A683B681B784FEA8303D3181B889BB269
:1039AC0003F04003002B18D07A683B681B784FEA71
:1039BC008303D21879683B681B784FEA8303CB18D2
:1039CC001B8899B240F60F730B4099B248F2C003B2
:1039DC00CFF6FF730B439BB213807A683B681B785E
:1039EC004FEA8303D3181B889BB223F4E04323F0E4
:1039FC0040039CB284F020039CB27A683B681B782D
:103A0C004FEA8303D21848F28003CFF6FF732343A7
:103A1C009BB213802DE27B68B3F850309BB21A46F0
:103A2C003B681B784FEAC303D31803F104034FEA36
:103A3C0043027B68D31803F580633A6892884FEA97
:103A4C00520292B24FEA42021A607B68B3F85030CD
:103A5C009BB21A463B681B784FEAC303D31803F199
:103A6C0006034FEA43027B68D31803F58063BB60FF
:103A7C003B681B693E2B1BD93B681B694FEA5313F0
:103A8C00FB813B681B6903F01F03002B03D1FB89EF
:103A9C0003F1FF33FB81FB894FEA83239BB26FEA6F
:103AAC0043436FEA53439BB21A46BB681A6015E056
:103ABC003B681B694FEA5303FB813B681B6903F0AE
:103ACC000103002B03D0FB8903F10103FB81FB896C
:103ADC004FEA83239BB21A46BB681A607A683B682C
:103AEC001B784FEA8303D3181B889BB203F48043E3
:103AFC00002B18D07A683B681B784FEA8303D218E6
:103B0C0079683B681B784FEA8303CB181B8899B202
:103B1C0040F60F730B4099B24CF28003CFF6FF7353
:103B2C000B439BB213807A683B681B784FEA830384
:103B3C00D3181B889BB223F4804323F070039CB2F0
:103B4C0084F480539CB284F400539CB27A683B6832
:103B5C001B784FEA8303D21848F28003CFF6FF7329
:103B6C0023439BB2138084E17A683B681B784FEA4D
:103B7C008303D21879683B681B784FEA8303CB1810
:103B8C001B8899B240F60F630B4099B248F2801330
:103B9C00CFF6FF730B439BB213807B68B3F85030A6
:103BAC009BB21A463B681B784FEAC303D3184FEA03
:103BBC0043027B68D31803F580633A68D2884FEAD6
:103BCC00520292B24FEA42021A607B68B3F850304C
:103BDC009BB21A463B681B784FEAC303D31803F118
:103BEC0004034FEA43027B68D31803F580633A68F9
:103BFC0012894FEA520292B24FEA42021A603B68B3
:103C0C005B78002B40F09E807A683B681B784FEA0B
:103C1C008303D3181B889BB203F48043002B18D06A
:103C2C007A683B681B784FEA8303D21879683B6843
:103C3C001B784FEA8303CB181B8899B240F60F739D
:103C4C000B4099B24CF28003CFF6FF730B439BB23F
:103C5C0013807A683B681B784FEA8303D3181B8860
:103C6C009BB203F04003002B18D07A683B681B789A
:103C7C004FEA8303D21879683B681B784FEA8303B9
:103C8C00CB181B8899B240F60F730B4099B248F2CF
:103C9C00C003CFF6FF730B439BB213807A683B686B
:103CAC001B784FEA8303D21879683B681B784FEA7C
:103CBC008303CB181B8899B240F60F730B4099B253
:103CCC0048F2C003CFF6FF730B439BB213807A68A4
:103CDC003B681B784FEA8303D3181B889BB223F4F1
:103CEC00804323F070039CB284F480539CB284F420
:103CFC0000539CB27A683B681B784FEA8303D21856
:103D0C0048F28003CFF6FF7323439BB213807A688B
:103D1C003B681B784FEA8303D3181B889BB223F4B0
:103D2C00E04323F040039CB27A683B681B784FEA6F
:103D3C008303D21848F28003CFF6FF7323439BB260
:103D4C00138096E07A683B681B784FEA8303D3189C
:103D5C001B889BB203F48043002B18D07A683B6815
:103D6C001B784FEA8303D21879683B681B784FEABB
:103D7C008303CB181B8899B240F60F730B4099B292
:103D8C004CF28003CFF6FF730B439BB213807A681F
:103D9C003B681B784FEA8303D3181B889BB203F054
:103DAC004003002B18D07A683B681B784FEA8303DA
:103DBC00D21879683B681B784FEA8303CB181B88B1
:103DCC0099B240F60F730B4099B248F2C003CFF68C
:103DDC00FF730B439BB213807A683B681B784FEAE6
:103DEC008303D21879683B681B784FEA8303CB189E
:103DFC001B8899B240F60F730B4099B24CF28003BA
:103E0C00CFF6FF730B439BB213807A683B681B7829
:103E1C004FEA8303D3181B889BB223F4E04323F0AF
:103E2C0040039CB27A683B681B784FEA8303D21834
:103E3C0048F28003CFF6FF7323439BB213807A685A
:103E4C003B681B784FEA8303D3181B889BB223F47F
:103E5C00804323F070039CB27A683B681B784FEA6E
:103E6C008303D21848F28003CFF6FF7323439BB22F
:103E7C0013804FF00003184607F11007BD4690BCA5
:103E8C00704700BF90B482B000AF786039603B6877
:103E9C009B7A002B40F084803B685B78002B3FD0F2
:103EAC007A683B681B784FEA8303D3181B889BB254
:103EBC0003F04003002B18D07A683B681B784FEA5C
:103ECC008303D21879683B681B784FEA8303CB18BD
:103EDC001B8899B240F60F730B4099B248F2C0039D
:103EEC00CFF6FF730B439BB213807A683B681B7849
:103EFC004FEA8303D3181B889BB223F4E04323F0CF
:103F0C0040039CB27A683B681B784FEA8303D21853
:103F1C0048F28003CFF6FF7323439BB2138073E107
:103F2C007A683B681B784FEA8303D3181B889BB2D3
:103F3C0003F48043002B18D07A683B681B784FEA57
:103F4C008303D21879683B681B784FEA8303CB183C
:103F5C001B8899B240F60F730B4099B24CF2800358
:103F6C00CFF6FF730B439BB213807A683B681B78C8
:103F7C004FEA8303D3181B889BB223F4804323F0AE
:103F8C0070039CB27A683B681B784FEA8303D218A3
:103F9C0048F28003CFF6FF7323439BB2138033E1C7
:103FAC003B685B78002B40F098807A683B681B7804
:103FBC004FEA8303D3181B889BB203F48043002B76
:103FCC0018D07A683B681B784FEA8303D21879685B
:103FDC003B681B784FEA8303CB181B8899B240F6D9
:103FEC000F730B4099B24CF28003CFF6FF730B4367
:103FFC009BB213807A683B681B784FEA8303D31813
:10400C001B889BB203F04003002B18D07A683B68E6
:10401C001B784FEA8303D21879683B681B784FEA08
:10402C008303CB181B8899B240F60F730B4099B2DF
:10403C0048F2C003CFF6FF730B439BB213807A6830
:10404C003B681B784FEA8303D21879683B681B786E
:10405C004FEA8303CB181B8899B240F60F730B40C1
:10406C0099B248F2C003CFF6FF730B439BB2138097
:10407C007A683B681B784FEA8303D3181B889BB282
:10408C0023F4804323F070039CB27A683B681B785E
:10409C004FEA8303D21848F28003CFF6FF73234311
:1040AC009BB213807A683B681B784FEA8303D31862
:1040BC001B889BB223F4E04323F040039CB27A6844
:1040CC003B681B784FEA8303D21848F28003CFF683
:1040DC00FF7323439BB2138096E07A683B681B788E
:1040EC004FEA8303D3181B889BB203F48043002B45
:1040FC0018D07A683B681B784FEA8303D21879682A
:10410C003B681B784FEA8303CB181B8899B240F6A7
:10411C000F730B4099B24CF28003CFF6FF730B4335
:10412C009BB213807A683B681B784FEA8303D318E1
:10413C001B889BB203F04003002B18D07A683B68B5
:10414C001B784FEA8303D21879683B681B784FEAD7
:10415C008303CB181B8899B240F60F730B4099B2AE
:10416C0048F2C003CFF6FF730B439BB213807A68FF
:10417C003B681B784FEA8303D21879683B681B783D
:10418C004FEA8303CB181B8899B240F60F730B4090
:10419C0099B24CF28003CFF6FF730B439BB21380A2
:1041AC007A683B681B784FEA8303D3181B889BB251
:1041BC0023F4E04323F040039CB27A683B681B78FD
:1041CC004FEA8303D21848F28003CFF6FF732343E0
:1041DC009BB213807A683B681B784FEA8303D31831
:1041EC001B889BB223F4804323F070039CB27A6843
:1041FC003B681B784FEA8303D21848F28003CFF652
:10420C00FF7323439BB213804FF00003184607F152
:10421C000807BD4690BC704790B58DB000AF786074
:10422C0039604FF00003FB853B689B69BB623B68C0
:10423C005B78012B40F072813B689A693B681B6983
:10424C009A4209D93B681B69BB623B689A69BB6A95
:10425C00D21A3B689A6106E03B689B69BB623B687B
:10426C004FF000029A613B689B7A002B1DD13B6892
:10427C0059693B689A88BB6A9BB2786800F098FCD5
:10428C007B68B3F850309BB21A463B681B784FEAF8
:10429C00C303D31803F102034FEA43027B68D3181C
:1042AC0003F58063BA6A1A6017E17A683B681B7879
:1042BC004FEA8303D3181B889BB203F04003002BF7
:1042CC0064D03B685B78002B44D17B68B3F85030EA
:1042DC009BB21A463B681B784FEAC303D31803F111
:1042EC0006034FEA43027B68D31803F58063BB6176
:1042FC00BB6A3E2B19D9BB6A4FEA5313FB84BB6ACA
:10430C0003F01F03002B03D1FB8C03F1FF33FB8461
:10431C00FB8C4FEA83239BB26FEA43436FEA534310
:10432C009BB21A46BB691A602CE0BB6A4FEA530376
:10433C00FB84BB6A03F00103002B03D0FB8C03F15D
:10434C000103FB84FB8C4FEA83239BB21A46BB69A7
:10435C001A6017E03B685B78012B13D17B68B3F8CC
:10436C0050309BB21A463B681B784FEAC303D318F4
:10437C0003F102034FEA43027B68D31803F5806311
:10438C00BA6A1A603B681B89FB8563E03B685B7803
:10439C00002B44D17B68B3F850309BB21A463B6873
:1043AC001B784FEAC303D31803F102034FEA43020D
:1043BC007B68D31803F580637B61BB6A3E2B19D9EC
:1043CC00BB6A4FEA5313BB84BB6A03F01F03002B79
:1043DC0003D1BB8C03F1FF33BB84BB8C4FEA83232B
:1043EC009BB26FEA43436FEA53439BB21A467B6915
:1043FC001A602CE0BB6A4FEA5303BB84BB6A03F020
:10440C000103002B03D0BB8C03F10103BB84BB8CD9
:10441C004FEA83239BB21A467B691A6017E03B680C
:10442C005B78012B13D17B68B3F850309BB21A46E2
:10443C003B681B784FEAC303D31803F102034FEA1E
:10444C0043027B68D31803F58063BA6A1A603B6831
:10445C00DB88FB853B685969BB6A9BB2FA8D78682F
:10446C0000F0A6FB3B685B78002B19D17A683B689F
:10447C001B784FEA8303D21879683B681B784FEAA4
:10448C008303CB181B8899B240F60F730B4099B27B
:10449C0048F2C003CFF6FF730B439BB213801CE0B2
:1044AC003B685B78012B18D17A683B681B784FEA24
:1044BC008303D21879683B681B784FEA8303CB18C7
:1044CC001B8899B240F60F730B4099B24CF28003E3
:1044DC00CFF6FF730B439BB213807A683B681B7853
:1044EC004FEA8303D3181B889BB223F4E04323F0D9
:1044FC0040039CB284F010039CB284F020039CB265
:10450C007A683B681B784FEA8303D21848F2800321
:10451C00CFF6FF7323439BB2138041E13B689A694A
:10452C003B681B699A4209D93B681B69BB623B68B3
:10453C009A69BB6AD21A3B689A6106E03B689B6930
:10454C00BB623B684FF000029A613B689B7A002B80
:10455C0044D17B68B3F850309BB21A463B681B7849
:10456C004FEAC303D31803F106034FEA43027B68F7
:10457C00D31803F580633B61BB6A3E2B19D9BB6A28
:10458C004FEA53137B84BB6A03F01F03002B03D148
:10459C007B8C03F1FF337B847B8C4FEA83239BB2B0
:1045AC006FEA43436FEA53439BB21A463B691A6066
:1045BC00D6E0BB6A4FEA53037B84BB6A03F001036A
:1045CC00002B03D07B8C03F101037B847B8C4FEAA3
:1045DC0083239BB21A463B691A60C1E03B685B7847
:1045EC00002B44D17B68B3F850309BB21A463B6821
:1045FC001B784FEAC303D31803F102034FEA4302BB
:10460C007B68D31803F58063FB60BB6A3E2B19D91A
:10461C00BB6A4FEA53133B84BB6A03F01F03002BA6
:10462C0003D13B8C03F1FF333B843B8C4FEA832358
:10463C009BB26FEA43436FEA53439BB21A46FB6843
:10464C001A602CE0BB6A4FEA53033B84BB6A03F04D
:10465C000103002B03D03B8C03F101033B843B8C07
:10466C004FEA83239BB21A46FB681A6017E03B683B
:10467C005B78012B13D17B68B3F850309BB21A4690
:10468C003B681B784FEAC303D31803F102034FEACC
:10469C0043027B68D31803F58063BA6A1A603B68DF
:1046AC005B78002B44D17B68B3F850309BB21A4630
:1046BC003B681B784FEAC303D31803F106034FEA98
:1046CC0043027B68D31803F58063BB60BB6A3E2B47
:1046DC0019D9BB6A4FEA5313FB83BB6A03F01F0360
:1046EC00002B03D1FB8B03F1FF33FB83FB8B4FEAD6
:1046FC0083239BB26FEA43436FEA53439BB21A4640
:10470C00BB681A602CE0BB6A4FEA5303FB83BB6A9D
:10471C0003F00103002B03D0FB8B03F10103FB839C
:10472C00FB8B4FEA83239BB21A46BB681A6017E0D7
:10473C003B685B78012B13D17B68B3F850309BB28C
:10474C001A463B681B784FEAC303D31803F10203E4
:10475C004FEA43027B68D31803F58063BA6A1A6088
:10476C007A683B681B784FEA8303D3181B889BB28B
:10477C0023F4804323F070039CB284F480539CB2E6
:10478C0084F400539CB27A683B681B784FEA83032D
:10479C00D21848F28003CFF6FF7323439BB21380E9
:1047AC004FF00003184607F13407BD4690BD00BF1B
:1047BC0080B485B000AFF860B960FA71BB804FF07F
:1047CC000003184607F11407BD4680BC704700BFB4
:1047DC0080B485B000AFF860B9601346FB804FF031
:1047EC000003184607F11407BD4680BC704700BF94
:1047FC0090B482B000AF786039603B681B78002BB6
:10480C001DD17A683B681B784FEA8303D3181B8849
:10481C009BB24BF6BF741C4084F4805484F010049B
:10482C007A683B681B784FEA8303D218A1B248F22E
:10483C008003CFF6FF730B439BB213803EE03B68C3
:10484C005B78002B1DD07A683B681B784FEA83039A
:10485C00D3181B889BB223F4E04323F040039CB293
:10486C0084F010039CB27A683B681B784FEA830390
:10487C00D21848F28003CFF6FF7323439BB2138008
:10488C001CE07A683B681B784FEA8303D3181B88BB
:10489C009BB223F4804323F070039CB284F48053C6
:1048AC009CB27A683B681B784FEA8303D21848F2B3
:1048BC008003CFF6FF7323439BB213804FF00003AA
:1048CC00184607F10807BD4690BC704790B482B0FB
:1048DC0000AF786039603B685B78002B45D07A6814
:1048EC003B681B784FEA8303D3181B889BB203F0F9
:1048FC004003002B18D07A683B681B784FEA83037F
:10490C00D21879683B681B784FEA8303CB181B8855
:10491C0099B240F60F730B4099B248F2C003CFF630
:10492C00FF730B439BB213807A683B681B784FEA8A
:10493C008303D3181B889BB223F4E04323F040037A
:10494C009CB284F010039CB284F020039CB27A6871
:10495C003B681B784FEA8303D21848F28003CFF6EA
:10496C00FF7323439BB2138044E07A683B681B7847
:10497C004FEA8303D3181B889BB203F48043002BAC
:10498C0018D07A683B681B784FEA8303D218796891
:10499C003B681B784FEA8303CB181B8899B240F60F
:1049AC000F730B4099B24CF28003CFF6FF730B439D
:1049BC009BB213807A683B681B784FEA8303D31849
:1049CC001B889BB223F4804323F070039CB284F4C5
:1049DC0080539CB284F400539CB27A683B681B7879
:1049EC004FEA8303D21848F28003CFF6FF732343B8
:1049FC009BB213804FF00003184607F10807BD4621
:104A0C0090BC704780B483B000AF78607B684FF087
:104A1C000102A3F840207B684FF00002A3F8442069
:104A2C007B684FF00302A3F840204FF000031846B8
:104A3C0007F10C07BD4680BC704700BF80B483B043
:104A4C0000AF78600B46FB70FB78002B04D17B68C1
:104A5C004FF08002A3F84C204FF00003184607F1EA
:104A6C000C07BD4680BC704780B483B000AF786043
:104A7C004FF00003184607F10C07BD4680BC704789
:104A8C0080B483B000AF78604FF00003184607F194
:104A9C000C07BD4680BC704780B485B000AF786011
:104AAC004FF00003FB607B68B3F844309BB2FB60B3
:104ABC00FB68184607F11407BD4680BC704700BF61
:104ACC0080B483B000AF78604FF00003184607F154
:104ADC000C07BD4680BC704780B483B000AF7860D3
:104AEC004FF00003184607F10C07BD4680BC704719
:104AFC0080B483B000AF78600B46FB704FF00003BE
:104B0C00184607F10C07BD4680BC704780B483B0D3
:104B1C0000AF78600B46FB704FF00003184607F1AE
:104B2C000C07BD4680BC704780B483B000AF786082
:104B3C00396007F10C07BD4680BC704780B483B068
:104B4C0000AF786039604FF00003184607F10C078E
:104B5C00BD4680BC704700BF80B483B000AF7860A6
:104B6C007B68B3F840309BB243F010039AB27B6879
:104B7C00A3F840204FF00003184607F10C07BD4680
:104B8C0080BC704780B483B000AF78607B68B3F8AA
:104B9C0040309BB223F010039AB27B68A3F84020FC
:104BAC004FF00003184607F10C07BD4680BC704758
:104BBC0080B48BB000AFF860B960FA80BB80BB8862
:104BCC0003F101034FEA6303FB614FF000037B62C7
:104BDC004FF00003BB614FF000037B614FF000030B
:104BEC003B62FB884FEA43031A46FB68D31803F574
:104BFC0080633B62FB697B6222E0BB681B78BB6114
:104C0C00BB6803F10103BB60BB681B784FEA03234D
:104C1C001A46BB6913437B617B699AB23B6A1A8063
:104C2C003B6A03F102033B623B6A03F102033B6202
:104C3C00BB6803F10103BB607B6A03F1FF337B624A
:104C4C007B6A002BD9D107F12C07BD4680BC70477D
:104C5C0080B489B000AFF860B960FA80BB80BB88C3
:104C6C0003F101034FEA63037B614FF00003FB6127
:104C7C004FF00003BB61FB884FEA43031A46FB6805
:104C8C00D31803F58063BB617B69FB6114E0BB69DE
:104C9C001B689AB2BB681A80BB6803F10103BB6046
:104CAC00BB6903F10403BB61BB6803F10103BB6087
:104CBC00FB6903F1FF33FB61FB69002BE7D107F1C3
:104CCC002407BD4680BC704780B584B000AF7860C7
:104CDC000B46FB704FF00003FB7378684FF08101BB
:104CEC004FF003024FF0040301F066FF78684FF0B9
:104CFC0001014FF003024FF0040301F05DFF4FF090
:104D0C00340002F09DF902467B68C3F818227B68D8
:104D1C00D3F81832002B03D14FF00103FB7316E0CC
:104D2C007B68D3F81832BB60BB684FF0000283F885
:104D3C0030207B68D3F81C325B689847BB68786876
:104D4C004FF001011A464FF0200302F017F9FB7BDC
:104D5C00184607F11007BD4680BD00BF80B582B074
:104D6C0000AF78600B46FB7078684FF0810101F062
:104D7C0063FF78684FF0010101F05EFF7B68D3F8A8
:104D8C001832002B0FD07B68D3F81C329B689847E5
:104D9C007B68D3F81832184602F060F97B684FF044
:104DAC000002C3F818224FF00003184607F1080759
:104DBC00BD4680BD80B586B000AF786039604FF0DD
:104DCC000003FB824FF000033B617B68D3F8183281
:104DDC00FB603B681B7803F06003002B5BD0202B3F
:104DEC0040F09E803B685B78A3F10203092B4AD804
:104DFC0001A252F823F000BF634E00083B4E00089E
:104E0C00934E0008934E0008934E0008934E0008F2
:104E1C00934E0008774E00084F4E00082D4E0008A8
:104E2C003B685B88DBB21A46FB681A6232E0FB68AF
:104E3C0003F12003786819464FF0010201F002F9E2
:104E4C0028E03B685B884FEA13239BB2DBB21A461F
:104E5C00FB685A621EE0FB6803F12403786819466C
:104E6C004FF0010201F0EEF814E0FB684FF0010284
:104E7C00DA62FA683B68DB88DBB2786811461A465E
:104E8C0001F016F906E07868396801F05DF84FF02A
:104E9C00020347E044E03B685B780A2B2FD00B2BD6
:104EAC0037D0062B3CD13B685B884FEA13239BB26F
:104EBC00222B0BD13B68DB88022B28BF0223FB8201
:104ECC007B68D3F81C321B683B6111E03B685B8844
:104EDC004FEA13239BB2212B0AD140F26C03C2F28E
:104EEC0000033B613B68DB88102B28BF1023FB823F
:104EFC00FB8A786839691A4601F0A4F810E0FB685F
:104F0C0003F12803786819464FF0010201F09AF872
:104F1C0006E03B685B88DBB21A46FB689A6200BF0E
:104F2C004FF00003184607F11807BD4680BD00BFBF
:104F3C0080B586B000AFF860B9601346FB80FB68A3
:104F4C00D3F818327B61FB6893F8FC31032B10D13A
:104F5C007B6993F83030002B0BD17B694FF0010249
:104F6C0083F83020FB88F8684FF08101BA6801F0B3
:104F7C00C3FF4FF00003184607F11807BD4680BD6C
:104F8C0080B483B000AF78607B684FF030021A8039
:104F9C0040F23C03C2F20003184607F10C07BD4671
:104FAC0080BC704780B483B000AF78600B46FB7058
:104FBC007B68D3F818324FF0000283F830204FF0A2
:104FCC000003184607F10C07BD4680BC704700BFB4
:104FDC0080B584B000AF78600B46FB707B68D3F86B
:104FEC001832FB607B68D3F81C32DB68FA681178E6
:104FFC00FA685278084611469847FB6878684FF073
:10500C0001011A464FF0200301F0B8FF4FF00003E6
:10501C00184607F11007BD4680BD00BF80B584B0AF
:10502C0000AF78607B68D3F81832FB60FB68DB6AF2
:10503C00012B0ED17B68D3F81C32DB68FA6811782F
:10504C00FA685278084611469847FB684FF0000200
:10505C00DA624FF00003184607F11007BD4680BD19
:10506C0080B483B000AF78607B684FF00A021A807E
:10507C0040F27C03C2F20003184607F10C07BD4650
:10508C0080BC704780B485B000AF786039604FF059
:10509C000203FB733B68002B06D07B683A68C3F8AD
:1050AC001C224FF00003FB73FB7B184607F114071F
:1050BC00BD4680BC704700BF80B584B000AFF860BF
:1050CC00B9601346FB71FB68002B02D14FF0020351
:1050DC001DE0FB68D3F81432002B04D0FB684FF0B2
:1050EC000002C3F81422BB68002B03D0FB68BA681B
:1050FC00C3F81022FB684FF0010283F8FC21FB6817
:10510C00FA791A70F86801F01BFC4FF0000318468E
:10511C0007F11007BD4680BD80B582B000AF786046
:10512C007B684FF0010283F8FC217B68D3F81432C2
:10513C005B687A685268D2B278681146984778688A
:10514C0001F000FD786801F089FC4FF0000318466F
:10515C0007F10807BD4680BD80B485B000AF78600C
:10516C0039604FF00003FB733B68002B07D07B6862
:10517C003A68C3F814224FF00003FB7302E04FF0BF
:10518C000203FB73FB7B184607F11407BD4680BC7A
:10519C00704700BF80B582B000AF7860786801F0CE
:1051AC0097FC4FF00003184607F10807BD4680BD79
:1051BC0080B582B000AF78607B68D3F814325B683E
:1051CC007A685268D2B2786811469847786801F0CC
:1051DC00B9FC4FF00003184607F10807BD4680BD27
:1051EC0080B483B000AF78604FF00003184607F12D
:1051FC000C07BD4680BC704780B584B000AF7860AA
:10520C000B46FB704FF00203FB737B68D3F8143230
:10521C00002B0DD07B68D3F814321B68FA787868B1
:10522C00114698470346002B02D14FF00003FB7345
:10523C00FB7B184607F11007BD4680BD80B582B0D8
:10524C0000AF78600B46FB707B68D3F814325B6858
:10525C00FA787868114698474FF00003184607F122
:10526C000807BD4680BD00BF80B582B000AF786036
:10527C0039607B6803F502731846396800F022FE2A
:10528C007B684FF00102C3F8F4217B68B3F80E324F
:10529C001A467B68C3F8F8217B6893F8083203F050
:1052AC001F03012B0BD0022B11D0002B17D17B68C5
:1052BC0003F502737868194600F0F2F91AE07B687E
:1052CC0003F502737868194600F03CFA12E07B682B
:1052DC0003F502737868194600F06AFA0AE07B68F5
:1052EC0093F8083223F07F03DBB27868194601F09B
:1052FC001FFD00BF4FF00003184607F10807BD461D
:10530C0080BD00BF80B586B000AFF8600B467A60F8
:10531C00FB72FB7A002B38D1FB6803F582737B613F
:10532C00FB68D3F8F431032B42D17B699A687B6913
:10533C00DB689A4214D97B699A687B69DB68D21A5C
:10534C007B699A607B69DA687B699B689A4238BF93
:10535C0013469BB2F86879681A4600F0CBFE27E03A
:10536C00FB68D3F814321B69002B0AD0FB6893F846
:10537C00FC31032B05D1FB68D3F814321B69F86898
:10538C009847F86800F0CCFE12E0FB68D3F81432B2
:10539C009B69002B0CD0FB6893F8FC31032B07D1D5
:1053AC00FB68D3F814329B69FA7AF868114698476F
:1053BC004FF00003184607F11807BD4680BD00BF2B
:1053CC0080B586B000AFF8600B467A60FB72FB7A52
:1053DC00002B77D1FB6803F114037B61FB68D3F8D6
:1053EC00F431022B60D17B699A687B69DB689A4245
:1053FC0018D97B699A687B69DB68D21A7B699A60D9
:10540C007B699B689BB2F86879681A4600F03AFE93
:10541C00F8684FF000014FF000024FF0000301F06C
:10542C00ADFD41E07B695B687A69D268B3FBF2F150
:10543C0002FB01F29B1A002B22D17B695A687B6913
:10544C00DB689A421CD37B695A68FB68D3F8F83145
:10545C009A4215D2F8684FF000014FF0000200F0AC
:10546C0011FEFB684FF00002C3F8F821F8684FF00A
:10547C0000014FF000024FF0000301F07FFD13E03C
:10548C00FB68D3F81432DB68002B0AD0FB6893F866
:10549C00FC31032B05D1FB68D3F81432DB68F868B8
:1054AC009847F86800F056FEFB6893F80032012B21
:1054BC001BD1F868FFF794FEFB684FF0000283F8ED
:1054CC00002212E0FB68D3F814325B69002B0CD07D
:1054DC00FB6893F8FC31032B07D1FB68D3F814322B
:1054EC005B69FA7AF868114698474FF00003184642
:1054FC0007F11807BD4680BD80B582B000AF78605B
:10550C0078684FF000014FF000024FF0400301F0BB
:10551C0053FB7B684FF04002C3F8102178684FF0C2
:10552C0080014FF000024FF0400301F045FB7B6817
:10553C004FF040021A627B684FF0010283F8FC21A5
:10554C007B68D3F81832002B09D07B68D3F814325F
:10555C005B687A685268D2B27868114698474FF007
:10556C000003184607F10807BD4680BD80B483B020
:10557C0000AF78600B46FB707B68FA781A744FF0BA
:10558C000003184607F10C07BD4680BC704700BFEE
:10559C0080B483B000AF78607B6893F8FC217B68A3
:1055AC0083F8FD217B684FF0040283F8FC214FF057
:1055BC000003184607F10C07BD4680BC704700BFBE
:1055CC0080B483B000AF78607B6893F8FD217B6872
:1055DC0083F8FC214FF00003184607F10C07BD4679
:1055EC0080BC704780B582B000AF78607B6893F860
:1055FC00FC31032B0BD17B68D3F81432DB69002B05
:10560C0005D07B68D3F81432DB69786898474FF083
:10561C000003184607F10807BD4680BD80B483B06F
:10562C0000AF78600B46FB704FF00003184607F193
:10563C000C07BD4680BC704780B483B000AF786067
:10564C000B46FB704FF00003184607F10C07BD46E4
:10565C0080BC704780B483B000AF78604FF000031B
:10566C00184607F10C07BD4680BC704780B582B068
:10567C0000AF78607B684FF0010283F8FC217B68F7
:10568C00D3F814325B687A685268D2B278681146E3
:10569C0098474FF00003184607F10807BD4680BD38
:1056AC0080B584B000AF786039604FF00003FB73B5
:1056BC003B685B78092B3AD801A252F823F000BF63
:1056CC001D570008315700083B57000827570008A2
:1056DC003B570008FF560008F55600083B570008DA
:1056EC0013570008095700087868396800F046F924
:1056FC0022E07868396800F04DFA1DE07868396866
:10570C0000F088FA18E07868396800F02DFB13E097
:10571C007868396800F060FB0EE07868396800F052
:10572C0089FB09E07868396800F0A0FB04E0786830
:10573C00396800F009FC00BFFB7B184607F1100725
:10574C00BD4680BD80B584B000AF786039604FF045
:10575C000003FB737B6893F8FC31032B1BD13B6874
:10576C009B88DBB2012B11D87B68D3F814329B6871
:10577C007868396898473B68DB88002B10D1FB7B35
:10578C00002B0DD1786800F0CBFC09E07868396803
:10579C0000F0DAFB04E07868396800F0D5FB00E033
:1057AC0000BF4FF00003184607F11007BD4680BD3F
:1057BC0080B584B000AF786039604FF00003FB73A4
:1057CC003B689B88BB733B681B7803F06003202B02
:1057DC0009D17B68D3F814329B687868396898478C
:1057EC004FF00003C4E03B685B78012B39D0032BEE
:1057FC0002D0002B6BD0B9E07B6893F8FC31022B04
:10580C0002D0032B0CD025E0BB7B002B27D0BB7B1D
:10581C00802B24D0BB7B7868194601F089FA1EE0F6
:10582C003B685B88002B0AD1BB7B002B07D0BB7B72
:10583C00802B04D0BB7B7868194601F079FA7B6821
:10584C00D3F814329B68786839689847786800F008
:10585C0067FC05E07868396800F076FB00E000BF73
:10586C0085E07B6893F8FC31022B02D0032B0CD023
:10587C0024E0BB7B002B26D0BB7B802B23D0BB7BB7
:10588C007868194601F054FA1DE03B685B88002BE0
:10589C001BD1BB7B03F07F03002B0BD0BB7B786849
:1058AC00194601F083FA7B68D3F814329B68786848
:1058BC0039689847786800F033FC06E078683968F6
:1058CC0000F042FB02E000BF00E000BF4FE07B684D
:1058DC0093F8FC31022B02D0032B0BD03FE0BB7BA7
:1058EC0003F07F03002B3FD0BB7B7868194601F097
:1058FC001FFA39E0BB7B5BB2002B0BDABB7B03F0EE
:10590C007F0303F101034FEA03137A68D31803F101
:10591C0004030AE0BB7B03F07F0303F110034FEA9F
:10592C0003137A68D31803F10403BB60BB7B78685C
:10593C00194601F079FA0346002B04D0BB684FF0EE
:10594C0001021A6003E0BB684FF000021A60BB68EA
:10595C00786819464FF0020200F074FB05E0786895
:10596C00396800F0F1FA00E000BF00E000BFFB7BFB
:10597C00184607F11007BD4680BD00BF80B584B046
:10598C0000AF786039603B685B884FEA13239BB2A9
:10599C0003F1FF33062B00F2DF8001A252F823F053
:1059AC00C9590008E35900082B5A0008655B000828
:1059BC00655B00080D5B0008335B00087B68D3F85F
:1059CC0010321B687A68117C07F10A0208461146EE
:1059DC009847F860C5E07B681B7C002B0FD17B6877
:1059EC00D3F814329B6A07F10A0210469847F86004
:1059FC00FB6803F101034FF002021A70B1E07B68FF
:105A0C00D3F81432DB6A07F10A0210469847F860A3
:105A1C00FB6803F101034FF002021A70A1E03B682E
:105A2C005B88DBB2052B5DD801A252F823F000BFD6
:105A3C00555A00086F5A0008895A0008A35A0008E2
:105A4C00BD5A0008D75A00087B68D3F810325B683F
:105A5C007A68117C07F10A02084611469847F860EB
:105A6C004DE07B68D3F810329B687A68117C07F1A3
:105A7C000A02084611469847F86040E07B68D3F864
:105A8C001032DB687A68117C07F10A02084611466D
:105A9C009847F86033E07B68D3F810321B697A685A
:105AAC00117C07F10A02084611469847F86026E077
:105ABC007B68D3F810325B697A68117C07F10A02B3
:105ACC00084611469847F86019E07B68D3F8103205
